{
  "_format": "hh-sol-artifact-1",
  "contractName": "CourseCertificate",
  "sourceName": "contracts/Certificate.sol",
  "abi": [
    {
      "inputs": [
        {
          "internalType": "string",
          "name": "courseName",
          "type": "string"
        }
      ],
      "stateMutability": "nonpayable",
      "type": "constructor"
    },
    {
      "inputs": [],
      "name": "CourseCertificate__NotIssued",
      "type": "error"
    },
    {
      "inputs": [],
      "name": "CourseCertificate__NotOwner",
      "type": "error"
    },
    {
      "inputs": [
        {
          "internalType": "address",
          "name": "sender",
          "type": "address"
        },
        {
          "internalType": "uint256",
          "name": "tokenId",
          "type": "uint256"
        },
        {
          "internalType": "address",
          "name": "owner",
          "type": "address"
        }
      ],
      "name": "ERC721IncorrectOwner",
      "type": "error"
    },
    {
      "inputs": [
        {
          "internalType": "address",
          "name": "operator",
          "type": "address"
        },
        {
          "internalType": "uint256",
          "name": "tokenId",
          "type": "uint256"
        }
      ],
      "name": "ERC721InsufficientApproval",
      "type": "error"
    },
    {
      "inputs": [
        {
          "internalType": "address",
          "name": "approver",
          "type": "address"
        }
      ],
      "name": "ERC721InvalidApprover",
      "type": "error"
    },
    {
      "inputs": [
        {
          "internalType": "address",
          "name": "operator",
          "type": "address"
        }
      ],
      "name": "ERC721InvalidOperator",
      "type": "error"
    },
    {
      "inputs": [
        {
          "internalType": "address",
          "name": "owner",
          "type": "address"
        }
      ],
      "name": "ERC721InvalidOwner",
      "type": "error"
    },
    {
      "inputs": [
        {
          "internalType": "address",
          "name": "receiver",
          "type": "address"
        }
      ],
      "name": "ERC721InvalidReceiver",
      "type": "error"
    },
    {
      "inputs": [
        {
          "internalType": "address",
          "name": "sender",
          "type": "address"
        }
      ],
      "name": "ERC721InvalidSender",
      "type": "error"
    },
    {
      "inputs": [
        {
          "internalType": "uint256",
          "name": "tokenId",
          "type": "uint256"
        }
      ],
      "name": "ERC721NonexistentToken",
      "type": "error"
    },
    {
      "anonymous": false,
      "inputs": [
        {
          "indexed": true,
          "internalType": "address",
          "name": "owner",
          "type": "address"
        },
        {
          "indexed": true,
          "internalType": "address",
          "name": "approved",
          "type": "address"
        },
        {
          "indexed": true,
          "internalType": "uint256",
          "name": "tokenId",
          "type": "uint256"
        }
      ],
      "name": "Approval",
      "type": "event"
    },
    {
      "anonymous": false,
      "inputs": [
        {
          "indexed": true,
          "internalType": "address",
          "name": "owner",
          "type": "address"
        },
        {
          "indexed": true,
          "internalType": "address",
          "name": "operator",
          "type": "address"
        },
        {
          "indexed": false,
          "internalType": "bool",
          "name": "approved",
          "type": "bool"
        }
      ],
      "name": "ApprovalForAll",
      "type": "event"
    },
    {
      "anonymous": false,
      "inputs": [
        {
          "indexed": false,
          "internalType": "uint256",
          "name": "_fromTokenId",
          "type": "uint256"
        },
        {
          "indexed": false,
          "internalType": "uint256",
          "name": "_toTokenId",
          "type": "uint256"
        }
      ],
      "name": "BatchMetadataUpdate",
      "type": "event"
    },
    {
      "anonymous": false,
      "inputs": [
        {
          "indexed": false,
          "internalType": "address",
          "name": "student",
          "type": "address"
        }
      ],
      "name": "CertificateIssued",
      "type": "event"
    },
    {
      "anonymous": false,
      "inputs": [
        {
          "indexed": false,
          "internalType": "address",
          "name": "student",
          "type": "address"
        },
        {
          "indexed": false,
          "internalType": "uint256",
          "name": "tokenId",
          "type": "uint256"
        },
        {
          "components": [
            {
              "internalType": "string",
              "name": "s_courseName",
              "type": "string"
            },
            {
              "internalType": "string",
              "name": "ocid",
              "type": "string"
            }
          ],
          "indexed": false,
          "internalType": "struct CourseCertificate.Certificate",
          "name": "certificate",
          "type": "tuple"
        }
      ],
      "name": "CertificateMinted",
      "type": "event"
    },
    {
      "anonymous": false,
      "inputs": [
        {
          "indexed": true,
          "internalType": "address",
          "name": "contractAddress",
          "type": "address"
        }
      ],
      "name": "ContractDeployed",
      "type": "event"
    },
    {
      "anonymous": false,
      "inputs": [
        {
          "indexed": false,
          "internalType": "uint256",
          "name": "_tokenId",
          "type": "uint256"
        }
      ],
      "name": "MetadataUpdate",
      "type": "event"
    },
    {
      "anonymous": false,
      "inputs": [
        {
          "indexed": true,
          "internalType": "address",
          "name": "from",
          "type": "address"
        },
        {
          "indexed": true,
          "internalType": "address",
          "name": "to",
          "type": "address"
        },
        {
          "indexed": true,
          "internalType": "uint256",
          "name": "tokenId",
          "type": "uint256"
        }
      ],
      "name": "Transfer",
      "type": "event"
    },
    {
      "inputs": [
        {
          "internalType": "address",
          "name": "to",
          "type": "address"
        },
        {
          "internalType": "uint256",
          "name": "tokenId",
          "type": "uint256"
        }
      ],
      "name": "approve",
      "outputs": [],
      "stateMutability": "nonpayable",
      "type": "function"
    },
    {
      "inputs": [
        {
          "internalType": "address",
          "name": "owner",
          "type": "address"
        }
      ],
      "name": "balanceOf",
      "outputs": [
        {
          "internalType": "uint256",
          "name": "",
          "type": "uint256"
        }
      ],
      "stateMutability": "view",
      "type": "function"
    },
    {
      "inputs": [
        {
          "internalType": "address",
          "name": "student",
          "type": "address"
        }
      ],
      "name": "checkCertificateOfStudent",
      "outputs": [
        {
          "internalType": "string",
          "name": "",
          "type": "string"
        }
      ],
      "stateMutability": "view",
      "type": "function"
    },
    {
      "inputs": [
        {
          "internalType": "uint256",
          "name": "tokenId",
          "type": "uint256"
        }
      ],
      "name": "getApproved",
      "outputs": [
        {
          "internalType": "address",
          "name": "",
          "type": "address"
        }
      ],
      "stateMutability": "view",
      "type": "function"
    },
    {
      "inputs": [],
      "name": "getCourseName",
      "outputs": [
        {
          "internalType": "string",
          "name": "",
          "type": "string"
        }
      ],
      "stateMutability": "view",
      "type": "function"
    },
    {
      "inputs": [],
      "name": "getOwner",
      "outputs": [
        {
          "internalType": "address",
          "name": "",
          "type": "address"
        }
      ],
      "stateMutability": "view",
      "type": "function"
    },
    {
      "inputs": [],
      "name": "getTokenCounter",
      "outputs": [
        {
          "internalType": "uint256",
          "name": "",
          "type": "uint256"
        }
      ],
      "stateMutability": "view",
      "type": "function"
    },
    {
      "inputs": [
        {
          "internalType": "address",
          "name": "owner",
          "type": "address"
        },
        {
          "internalType": "address",
          "name": "operator",
          "type": "address"
        }
      ],
      "name": "isApprovedForAll",
      "outputs": [
        {
          "internalType": "bool",
          "name": "",
          "type": "bool"
        }
      ],
      "stateMutability": "view",
      "type": "function"
    },
    {
      "inputs": [
        {
          "internalType": "address",
          "name": "student",
          "type": "address"
        }
      ],
      "name": "isStudentCertificateIssued",
      "outputs": [
        {
          "internalType": "bool",
          "name": "",
          "type": "bool"
        }
      ],
      "stateMutability": "view",
      "type": "function"
    },
    {
      "inputs": [
        {
          "internalType": "address",
          "name": "student",
          "type": "address"
        },
        {
          "internalType": "string",
          "name": "courseName",
          "type": "string"
        }
      ],
      "name": "issueCertificate",
      "outputs": [],
      "stateMutability": "nonpayable",
      "type": "function"
    },
    {
      "inputs": [
        {
          "internalType": "string",
          "name": "ocid",
          "type": "string"
        }
      ],
      "name": "mintCertificate",
      "outputs": [
        {
          "internalType": "uint256",
          "name": "",
          "type": "uint256"
        }
      ],
      "stateMutability": "nonpayable",
      "type": "function"
    },
    {
      "inputs": [],
      "name": "name",
      "outputs": [
        {
          "internalType": "string",
          "name": "",
          "type": "string"
        }
      ],
      "stateMutability": "view",
      "type": "function"
    },
    {
      "inputs": [
        {
          "internalType": "uint256",
          "name": "tokenId",
          "type": "uint256"
        }
      ],
      "name": "ownerOf",
      "outputs": [
        {
          "internalType": "address",
          "name": "",
          "type": "address"
        }
      ],
      "stateMutability": "view",
      "type": "function"
    },
    {
      "inputs": [
        {
          "internalType": "address",
          "name": "from",
          "type": "address"
        },
        {
          "internalType": "address",
          "name": "to",
          "type": "address"
        },
        {
          "internalType": "uint256",
          "name": "tokenId",
          "type": "uint256"
        }
      ],
      "name": "safeTransferFrom",
      "outputs": [],
      "stateMutability": "nonpayable",
      "type": "function"
    },
    {
      "inputs": [
        {
          "internalType": "address",
          "name": "from",
          "type": "address"
        },
        {
          "internalType": "address",
          "name": "to",
          "type": "address"
        },
        {
          "internalType": "uint256",
          "name": "tokenId",
          "type": "uint256"
        },
        {
          "internalType": "bytes",
          "name": "data",
          "type": "bytes"
        }
      ],
      "name": "safeTransferFrom",
      "outputs": [],
      "stateMutability": "nonpayable",
      "type": "function"
    },
    {
      "inputs": [
        {
          "internalType": "address",
          "name": "operator",
          "type": "address"
        },
        {
          "internalType": "bool",
          "name": "approved",
          "type": "bool"
        }
      ],
      "name": "setApprovalForAll",
      "outputs": [],
      "stateMutability": "nonpayable",
      "type": "function"
    },
    {
      "inputs": [
        {
          "internalType": "bytes4",
          "name": "interfaceId",
          "type": "bytes4"
        }
      ],
      "name": "supportsInterface",
      "outputs": [
        {
          "internalType": "bool",
          "name": "",
          "type": "bool"
        }
      ],
      "stateMutability": "view",
      "type": "function"
    },
    {
      "inputs": [],
      "name": "symbol",
      "outputs": [
        {
          "internalType": "string",
          "name": "",
          "type": "string"
        }
      ],
      "stateMutability": "view",
      "type": "function"
    },
    {
      "inputs": [
        {
          "internalType": "uint256",
          "name": "tokenId",
          "type": "uint256"
        }
      ],
      "name": "tokenURI",
      "outputs": [
        {
          "internalType": "string",
          "name": "",
          "type": "string"
        }
      ],
      "stateMutability": "view",
      "type": "function"
    },
    {
      "inputs": [
        {
          "internalType": "address",
          "name": "from",
          "type": "address"
        },
        {
          "internalType": "address",
          "name": "to",
          "type": "address"
        },
        {
          "internalType": "uint256",
          "name": "tokenId",
          "type": "uint256"
        }
      ],
      "name": "transferFrom",
      "outputs": [],
      "stateMutability": "nonpayable",
      "type": "function"
    }
  ],
  "bytecode": "0x60806040523480156200001157600080fd5b5060405162003ada38038062003ada833981810160405281019062000037919062000301565b6040518060400160405280601f81526020017f436f757273654365727469666963617465536f756c426f756e64546f6b656e008152506040518060400160405280600581526020017f43435342540000000000000000000000000000000000000000000000000000008152508160009081620000b491906200059d565b508060019081620000c691906200059d565b5050508060079081620000da91906200059d565b5033600860006101000a81548173ffffffffffffffffffffffffffffffffffffffff021916908373ffffffffffffffffffffffffffffffffffffffff1602179055506000600b819055503073ffffffffffffffffffffffffffffffffffffffff167f8ffcdc15a283d706d38281f500270d8b5a656918f555de0913d7455e3e6bc1bf60405160405180910390a25062000684565b6000604051905090565b600080fd5b600080fd5b600080fd5b600080fd5b6000601f19601f8301169050919050565b7f4e487b7100000000000000000000000000000000000000000000000000000000600052604160045260246000fd5b620001d7826200018c565b810181811067ffffffffffffffff82111715620001f957620001f86200019d565b5b80604052505050565b60006200020e6200016e565b90506200021c8282620001cc565b919050565b600067ffffffffffffffff8211156200023f576200023e6200019d565b5b6200024a826200018c565b9050602081019050919050565b60005b83811015620002775780820151818401526020810190506200025a565b60008484015250505050565b60006200029a620002948462000221565b62000202565b905082815260208101848484011115620002b957620002b862000187565b5b620002c684828562000257565b509392505050565b600082601f830112620002e657620002e562000182565b5b8151620002f884826020860162000283565b91505092915050565b6000602082840312156200031a576200031962000178565b5b600082015167ffffffffffffffff8111156200033b576200033a6200017d565b5b6200034984828501620002ce565b91505092915050565b600081519050919050565b7f4e487b7100000000000000000000000000000000000000000000000000000000600052602260045260246000fd5b60006002820490506001821680620003a557607f821691505b602082108103620003bb57620003ba6200035d565b5b50919050565b60008190508160005260206000209050919050565b60006020601f8301049050919050565b600082821b905092915050565b600060088302620004257fffffffffffffffffffffffffffffffffffffffffffffffffffffffffffffffff82620003e6565b620004318683620003e6565b95508019841693508086168417925050509392505050565b6000819050919050565b6000819050919050565b60006200047e62000478620004728462000449565b62000453565b62000449565b9050919050565b6000819050919050565b6200049a836200045d565b620004b2620004a98262000485565b848454620003f3565b825550505050565b600090565b620004c9620004ba565b620004d68184846200048f565b505050565b5b81811015620004fe57620004f2600082620004bf565b600181019050620004dc565b5050565b601f8211156200054d576200051781620003c1565b6200052284620003d6565b8101602085101562000532578190505b6200054a6200054185620003d6565b830182620004db565b50505b505050565b600082821c905092915050565b6000620005726000198460080262000552565b1980831691505092915050565b60006200058d83836200055f565b9150826002028217905092915050565b620005a88262000352565b67ffffffffffffffff811115620005c457620005c36200019d565b5b620005d082546200038c565b620005dd82828562000502565b600060209050601f83116001811462000615576000841562000600578287015190505b6200060c85826200057f565b8655506200067c565b601f1984166200062586620003c1565b60005b828110156200064f5784890151825560018201915060208501945060208101905062000628565b868310156200066f57848901516200066b601f8916826200055f565b8355505b6001600288020188555050505b505050505050565b61344680620006946000396000f3fe608060405234801561001057600080fd5b506004361061012c5760003560e01c806385b01b27116100ad578063b88d4fde11610071578063b88d4fde14610357578063bb721aab14610373578063c87b56dd1461038f578063e3a88109146103bf578063e985e9c5146103ef5761012c565b806385b01b27146102b1578063893d20e8146102e157806395d89b41146102ff578063a22cb4651461031d578063acf2b4e7146103395761012c565b806323b872dd116100f457806323b872dd146101fb57806342842e0e146102175780636352211e146102335780636e02007d1461026357806370a08231146102815761012c565b806301ffc9a71461013157806306fdde0314610161578063081812fc1461017f578063095ea7b3146101af5780631770b1f7146101cb575b600080fd5b61014b600480360381019061014691906120c5565b61041f565b604051610158919061210d565b60405180910390f35b610169610480565b60405161017691906121b8565b60405180910390f35b61019960048036038101906101949190612210565b610512565b6040516101a6919061227e565b60405180910390f35b6101c960048036038101906101c491906122c5565b61052e565b005b6101e560048036038101906101e09190612305565b610544565b6040516101f291906121b8565b60405180910390f35b61021560048036038101906102109190612332565b610615565b005b610231600480360381019061022c9190612332565b610717565b005b61024d60048036038101906102489190612210565b610737565b60405161025a919061227e565b60405180910390f35b61026b610749565b6040516102789190612394565b60405180910390f35b61029b60048036038101906102969190612305565b610753565b6040516102a89190612394565b60405180910390f35b6102cb60048036038101906102c69190612305565b61080d565b6040516102d8919061210d565b60405180910390f35b6102e9610863565b6040516102f6919061227e565b60405180910390f35b61030761088d565b60405161031491906121b8565b60405180910390f35b610337600480360381019061033291906123db565b61091f565b005b610341610935565b60405161034e91906121b8565b60405180910390f35b610371600480360381019061036c9190612550565b6109c7565b005b61038d60048036038101906103889190612674565b6109e4565b005b6103a960048036038101906103a49190612210565b610b84565b6040516103b691906121b8565b60405180910390f35b6103d960048036038101906103d491906126d0565b610c97565b6040516103e69190612394565b60405180910390f35b61040960048036038101906104049190612719565b610f04565b604051610416919061210d565b60405180910390f35b6000634906490660e01b7bffffffffffffffffffffffffffffffffffffffffffffffffffffffff1916827bffffffffffffffffffffffffffffffffffffffffffffffffffffffff19161480610479575061047882610f98565b5b9050919050565b60606000805461048f90612788565b80601f01602080910402602001604051908101604052809291908181526020018280546104bb90612788565b80156105085780601f106104dd57610100808354040283529160200191610508565b820191906000526020600020905b8154815290600101906020018083116104eb57829003601f168201915b5050505050905090565b600061051d8261107a565b5061052782611102565b9050919050565b610540828261053b61113f565b611147565b5050565b6060600a60008373ffffffffffffffffffffffffffffffffffffffff1673ffffffffffffffffffffffffffffffffffffffff168152602001908152602001600020805461059090612788565b80601f01602080910402602001604051908101604052809291908181526020018280546105bc90612788565b80156106095780601f106105de57610100808354040283529160200191610609565b820191906000526020600020905b8154815290600101906020018083116105ec57829003601f168201915b50505050509050919050565b600073ffffffffffffffffffffffffffffffffffffffff168273ffffffffffffffffffffffffffffffffffffffff16036106875760006040517f64a0ae9200000000000000000000000000000000000000000000000000000000815260040161067e919061227e565b60405180910390fd5b600061069b838361069661113f565b611159565b90508373ffffffffffffffffffffffffffffffffffffffff168173ffffffffffffffffffffffffffffffffffffffff1614610711578382826040517f64283d7b000000000000000000000000000000000000000000000000000000008152600401610708939291906127b9565b60405180910390fd5b50505050565b610732838383604051806020016040528060008152506109c7565b505050565b60006107428261107a565b9050919050565b6000600b54905090565b60008073ffffffffffffffffffffffffffffffffffffffff168273ffffffffffffffffffffffffffffffffffffffff16036107c65760006040517f89c62b640000000000000000000000000000000000000000000000000000000081526004016107bd919061227e565b60405180910390fd5b600360008373ffffffffffffffffffffffffffffffffffffffff1673ffffffffffffffffffffffffffffffffffffffff168152602001908152602001600020549050919050565b6000600960008373ffffffffffffffffffffffffffffffffffffffff1673ffffffffffffffffffffffffffffffffffffffff16815260200190815260200160002060009054906101000a900460ff169050919050565b6000600860009054906101000a900473ffffffffffffffffffffffffffffffffffffffff16905090565b60606001805461089c90612788565b80601f01602080910402602001604051908101604052809291908181526020018280546108c890612788565b80156109155780601f106108ea57610100808354040283529160200191610915565b820191906000526020600020905b8154815290600101906020018083116108f857829003601f168201915b5050505050905090565b61093161092a61113f565b8383611373565b5050565b60606007805461094490612788565b80601f016020809104026020016040519081016040528092919081815260200182805461097090612788565b80156109bd5780601f10610992576101008083540402835291602001916109bd565b820191906000526020600020905b8154815290600101906020018083116109a057829003601f168201915b5050505050905090565b6109d2848484610615565b6109de848484846114e2565b50505050565b600860009054906101000a900473ffffffffffffffffffffffffffffffffffffffff1673ffffffffffffffffffffffffffffffffffffffff163373ffffffffffffffffffffffffffffffffffffffff1614610a6b576040517f7763105900000000000000000000000000000000000000000000000000000000815260040160405180910390fd5b80604051602001610a7c919061282c565b604051602081830303815290604052805190602001206007604051602001610aa491906128db565b6040516020818303038152906040528051906020012014610af1576040517f1d57bda100000000000000000000000000000000000000000000000000000000815260040160405180910390fd5b6001600960008473ffffffffffffffffffffffffffffffffffffffff1673ffffffffffffffffffffffffffffffffffffffff16815260200190815260200160002060006101000a81548160ff0219169083151502179055507f415ffddd5c0c3058e868a0b47e0a33db469bd6c5193ebcb5a4c1337f36acf52882604051610b78919061227e565b60405180910390a15050565b6060610b8f8261107a565b506000600660008481526020019081526020016000208054610bb090612788565b80601f0160208091040260200160405190810160405280929190818152602001828054610bdc90612788565b8015610c295780601f10610bfe57610100808354040283529160200191610c29565b820191906000526020600020905b815481529060010190602001808311610c0c57829003601f168201915b505050505090506000610c3a611699565b90506000815103610c4f578192505050610c92565b600082511115610c84578082604051602001610c6c9291906128f2565b60405160208183030381529060405292505050610c92565b610c8d846116b0565b925050505b919050565b6000600960003373ffffffffffffffffffffffffffffffffffffffff1673ffffffffffffffffffffffffffffffffffffffff16815260200190815260200160002060009054906101000a900460ff16610d1c576040517f1d57bda100000000000000000000000000000000000000000000000000000000815260040160405180910390fd5b6001600b6000828254610d2f9190612945565b925050819055506000600b549050610d473382611719565b6000610d538285611812565b9050610d5f8282611879565b6000600960003373ffffffffffffffffffffffffffffffffffffffff1673ffffffffffffffffffffffffffffffffffffffff16815260200190815260200160002060006101000a81548160ff02191690831515021790555080600a60003373ffffffffffffffffffffffffffffffffffffffff1673ffffffffffffffffffffffffffffffffffffffff1681526020019081526020016000209081610e039190612b10565b50610e0c610935565b60079081610e1a9190612b10565b506000604051806040016040528060078054610e3590612788565b80601f0160208091040260200160405190810160405280929190818152602001828054610e6190612788565b8015610eae5780601f10610e8357610100808354040283529160200191610eae565b820191906000526020600020905b815481529060010190602001808311610e9157829003601f168201915b505050505081526020018681525090507f84a35990fa096ca3d54ddfec5399d4966212b745aff6302e4bf85dbfcf417237338483604051610ef193929190612c70565b60405180910390a1829350505050919050565b6000600560008473ffffffffffffffffffffffffffffffffffffffff1673ffffffffffffffffffffffffffffffffffffffff16815260200190815260200160002060008373ffffffffffffffffffffffffffffffffffffffff1673ffffffffffffffffffffffffffffffffffffffff16815260200190815260200160002060009054906101000a900460ff16905092915050565b60007f80ac58cd000000000000000000000000000000000000000000000000000000007bffffffffffffffffffffffffffffffffffffffffffffffffffffffff1916827bffffffffffffffffffffffffffffffffffffffffffffffffffffffff1916148061106357507f5b5e139f000000000000000000000000000000000000000000000000000000007bffffffffffffffffffffffffffffffffffffffffffffffffffffffff1916827bffffffffffffffffffffffffffffffffffffffffffffffffffffffff1916145b806110735750611072826118d5565b5b9050919050565b6000806110868361193f565b9050600073ffffffffffffffffffffffffffffffffffffffff168173ffffffffffffffffffffffffffffffffffffffff16036110f957826040517f7e2732890000000000000000000000000000000000000000000000000000000081526004016110f09190612394565b60405180910390fd5b80915050919050565b60006004600083815260200190815260200160002060009054906101000a900473ffffffffffffffffffffffffffffffffffffffff169050919050565b600033905090565b611154838383600161197c565b505050565b6000806111658461193f565b9050600073ffffffffffffffffffffffffffffffffffffffff168373ffffffffffffffffffffffffffffffffffffffff16146111a7576111a6818486611b41565b5b600073ffffffffffffffffffffffffffffffffffffffff168173ffffffffffffffffffffffffffffffffffffffff1614611238576111e960008560008061197c565b6001600360008373ffffffffffffffffffffffffffffffffffffffff1673ffffffffffffffffffffffffffffffffffffffff168152602001908152602001600020600082825403925050819055505b600073ffffffffffffffffffffffffffffffffffffffff168573ffffffffffffffffffffffffffffffffffffffff16146112bb576001600360008773ffffffffffffffffffffffffffffffffffffffff1673ffffffffffffffffffffffffffffffffffffffff168152602001908152602001600020600082825401925050819055505b846002600086815260200190815260200160002060006101000a81548173ffffffffffffffffffffffffffffffffffffffff021916908373ffffffffffffffffffffffffffffffffffffffff160217905550838573ffffffffffffffffffffffffffffffffffffffff168273ffffffffffffffffffffffffffffffffffffffff167fddf252ad1be2c89b69c2b068fc378daa952ba7f163c4a11628f55a4df523b3ef60405160405180910390a4809150509392505050565b600073ffffffffffffffffffffffffffffffffffffffff168273ffffffffffffffffffffffffffffffffffffffff16036113e457816040517f5b08ba180000000000000000000000000000000000000000000000000000000081526004016113db919061227e565b60405180910390fd5b80600560008573ffffffffffffffffffffffffffffffffffffffff1673ffffffffffffffffffffffffffffffffffffffff16815260200190815260200160002060008473ffffffffffffffffffffffffffffffffffffffff1673ffffffffffffffffffffffffffffffffffffffff16815260200190815260200160002060006101000a81548160ff0219169083151502179055508173ffffffffffffffffffffffffffffffffffffffff168373ffffffffffffffffffffffffffffffffffffffff167f17307eab39ab6107e8899845ad3d59bd9653f200f220920489ca2b5937696c31836040516114d5919061210d565b60405180910390a3505050565b60008373ffffffffffffffffffffffffffffffffffffffff163b1115611693578273ffffffffffffffffffffffffffffffffffffffff1663150b7a0261152661113f565b8685856040518563ffffffff1660e01b81526004016115489493929190612d03565b6020604051808303816000875af192505050801561158457506040513d601f19601f820116820180604052508101906115819190612d64565b60015b611608573d80600081146115b4576040519150601f19603f3d011682016040523d82523d6000602084013e6115b9565b606091505b50600081510361160057836040517f64a0ae920000000000000000000000000000000000000000000000000000000081526004016115f7919061227e565b60405180910390fd5b805181602001fd5b63150b7a0260e01b7bffffffffffffffffffffffffffffffffffffffffffffffffffffffff1916817bffffffffffffffffffffffffffffffffffffffffffffffffffffffff19161461169157836040517f64a0ae92000000000000000000000000000000000000000000000000000000008152600401611688919061227e565b60405180910390fd5b505b50505050565b606060405180602001604052806000815250905090565b60606116bb8261107a565b5060006116c6611699565b905060008151116116e65760405180602001604052806000815250611711565b806116f084611c05565b6040516020016117019291906128f2565b6040516020818303038152906040525b915050919050565b600073ffffffffffffffffffffffffffffffffffffffff168273ffffffffffffffffffffffffffffffffffffffff160361178b5760006040517f64a0ae92000000000000000000000000000000000000000000000000000000008152600401611782919061227e565b60405180910390fd5b600061179983836000611159565b9050600073ffffffffffffffffffffffffffffffffffffffff168173ffffffffffffffffffffffffffffffffffffffff161461180d5760006040517f73c6ac6e000000000000000000000000000000000000000000000000000000008152600401611804919061227e565b60405180910390fd5b505050565b60606000600761182185611c05565b6007856040516020016118379493929190613193565b604051602081830303815290604052905061185181611cd3565b60405160200161186191906132e3565b60405160208183030381529060405291505092915050565b806006600084815260200190815260200160002090816118999190612b10565b507ff8e1a15aba9398e019f0b49df1a4fde98ee17ae345cb5f6b5e2c27f5033e8ce7826040516118c99190612394565b60405180910390a15050565b60007f01ffc9a7000000000000000000000000000000000000000000000000000000007bffffffffffffffffffffffffffffffffffffffffffffffffffffffff1916827bffffffffffffffffffffffffffffffffffffffffffffffffffffffff1916149050919050565b60006002600083815260200190815260200160002060009054906101000a900473ffffffffffffffffffffffffffffffffffffffff169050919050565b80806119b55750600073ffffffffffffffffffffffffffffffffffffffff168273ffffffffffffffffffffffffffffffffffffffff1614155b15611ae95760006119c58461107a565b9050600073ffffffffffffffffffffffffffffffffffffffff168373ffffffffffffffffffffffffffffffffffffffff1614158015611a3057508273ffffffffffffffffffffffffffffffffffffffff168173ffffffffffffffffffffffffffffffffffffffff1614155b8015611a435750611a418184610f04565b155b15611a8557826040517fa9fbf51f000000000000000000000000000000000000000000000000000000008152600401611a7c919061227e565b60405180910390fd5b8115611ae757838573ffffffffffffffffffffffffffffffffffffffff168273ffffffffffffffffffffffffffffffffffffffff167f8c5be1e5ebec7d5bd14f71427d1e84f3dd0314c0f7b2291e5b200ac8c7c3b92560405160405180910390a45b505b836004600085815260200190815260200160002060006101000a81548173ffffffffffffffffffffffffffffffffffffffff021916908373ffffffffffffffffffffffffffffffffffffffff16021790555050505050565b611b4c838383611e45565b611c0057600073ffffffffffffffffffffffffffffffffffffffff168373ffffffffffffffffffffffffffffffffffffffff1603611bc157806040517f7e273289000000000000000000000000000000000000000000000000000000008152600401611bb89190612394565b60405180910390fd5b81816040517f177e802f000000000000000000000000000000000000000000000000000000008152600401611bf7929190613305565b60405180910390fd5b505050565b606060006001611c1484611f06565b01905060008167ffffffffffffffff811115611c3357611c32612425565b5b6040519080825280601f01601f191660200182016040528015611c655781602001600182028036833780820191505090505b509050600082602001820190505b600115611cc8578080600190039150507f3031323334353637383961626364656600000000000000000000000000000000600a86061a8153600a8581611cbc57611cbb61332e565b5b04945060008503611c73575b819350505050919050565b60606000825103611cf557604051806020016040528060008152509050611e40565b60006040518060600160405280604081526020016133d16040913990506000600360028551611d249190612945565b611d2e919061335d565b6004611d3a919061338e565b67ffffffffffffffff811115611d5357611d52612425565b5b6040519080825280601f01601f191660200182016040528015611d855781602001600182028036833780820191505090505b50905060018201602082018586518701602081018051600082525b82841015611dfb576003840193508351603f8160121c168701518653600186019550603f81600c1c168701518653600186019550603f8160061c168701518653600186019550603f8116870151865360018601955050611da0565b80825260038a510660018114611e185760028114611e2b57611e33565b603d6001870353603d6002870353611e33565b603d60018703535b5050505050505080925050505b919050565b60008073ffffffffffffffffffffffffffffffffffffffff168373ffffffffffffffffffffffffffffffffffffffff1614158015611efd57508273ffffffffffffffffffffffffffffffffffffffff168473ffffffffffffffffffffffffffffffffffffffff161480611ebe5750611ebd8484610f04565b5b80611efc57508273ffffffffffffffffffffffffffffffffffffffff16611ee483611102565b73ffffffffffffffffffffffffffffffffffffffff16145b5b90509392505050565b600080600090507a184f03e93ff9f4daa797ed6e38ed64bf6a1f0100000000000000008310611f64577a184f03e93ff9f4daa797ed6e38ed64bf6a1f0100000000000000008381611f5a57611f5961332e565b5b0492506040810190505b6d04ee2d6d415b85acef81000000008310611fa1576d04ee2d6d415b85acef81000000008381611f9757611f9661332e565b5b0492506020810190505b662386f26fc100008310611fd057662386f26fc100008381611fc657611fc561332e565b5b0492506010810190505b6305f5e1008310611ff9576305f5e1008381611fef57611fee61332e565b5b0492506008810190505b612710831061201e5761271083816120145761201361332e565b5b0492506004810190505b6064831061204157606483816120375761203661332e565b5b0492506002810190505b600a8310612050576001810190505b80915050919050565b6000604051905090565b600080fd5b600080fd5b60007fffffffff0000000000000000000000000000000000000000000000000000000082169050919050565b6120a28161206d565b81146120ad57600080fd5b50565b6000813590506120bf81612099565b92915050565b6000602082840312156120db576120da612063565b5b60006120e9848285016120b0565b91505092915050565b60008115159050919050565b612107816120f2565b82525050565b600060208201905061212260008301846120fe565b92915050565b600081519050919050565b600082825260208201905092915050565b60005b83811015612162578082015181840152602081019050612147565b60008484015250505050565b6000601f19601f8301169050919050565b600061218a82612128565b6121948185612133565b93506121a4818560208601612144565b6121ad8161216e565b840191505092915050565b600060208201905081810360008301526121d2818461217f565b905092915050565b6000819050919050565b6121ed816121da565b81146121f857600080fd5b50565b60008135905061220a816121e4565b92915050565b60006020828403121561222657612225612063565b5b6000612234848285016121fb565b91505092915050565b600073ffffffffffffffffffffffffffffffffffffffff82169050919050565b60006122688261223d565b9050919050565b6122788161225d565b82525050565b6000602082019050612293600083018461226f565b92915050565b6122a28161225d565b81146122ad57600080fd5b50565b6000813590506122bf81612299565b92915050565b600080604083850312156122dc576122db612063565b5b60006122ea858286016122b0565b92505060206122fb858286016121fb565b9150509250929050565b60006020828403121561231b5761231a612063565b5b6000612329848285016122b0565b91505092915050565b60008060006060848603121561234b5761234a612063565b5b6000612359868287016122b0565b935050602061236a868287016122b0565b925050604061237b868287016121fb565b9150509250925092565b61238e816121da565b82525050565b60006020820190506123a96000830184612385565b92915050565b6123b8816120f2565b81146123c357600080fd5b50565b6000813590506123d5816123af565b92915050565b600080604083850312156123f2576123f1612063565b5b6000612400858286016122b0565b9250506020612411858286016123c6565b9150509250929050565b600080fd5b600080fd5b7f4e487b7100000000000000000000000000000000000000000000000000000000600052604160045260246000fd5b61245d8261216e565b810181811067ffffffffffffffff8211171561247c5761247b612425565b5b80604052505050565b600061248f612059565b905061249b8282612454565b919050565b600067ffffffffffffffff8211156124bb576124ba612425565b5b6124c48261216e565b9050602081019050919050565b82818337600083830152505050565b60006124f36124ee846124a0565b612485565b90508281526020810184848401111561250f5761250e612420565b5b61251a8482856124d1565b509392505050565b600082601f8301126125375761253661241b565b5b81356125478482602086016124e0565b91505092915050565b6000806000806080858703121561256a57612569612063565b5b6000612578878288016122b0565b9450506020612589878288016122b0565b935050604061259a878288016121fb565b925050606085013567ffffffffffffffff8111156125bb576125ba612068565b5b6125c787828801612522565b91505092959194509250565b600067ffffffffffffffff8211156125ee576125ed612425565b5b6125f78261216e565b9050602081019050919050565b6000612617612612846125d3565b612485565b90508281526020810184848401111561263357612632612420565b5b61263e8482856124d1565b509392505050565b600082601f83011261265b5761265a61241b565b5b813561266b848260208601612604565b91505092915050565b6000806040838503121561268b5761268a612063565b5b6000612699858286016122b0565b925050602083013567ffffffffffffffff8111156126ba576126b9612068565b5b6126c685828601612646565b9150509250929050565b6000602082840312156126e6576126e5612063565b5b600082013567ffffffffffffffff81111561270457612703612068565b5b61271084828501612646565b91505092915050565b600080604083850312156127305761272f612063565b5b600061273e858286016122b0565b925050602061274f858286016122b0565b9150509250929050565b7f4e487b7100000000000000000000000000000000000000000000000000000000600052602260045260246000fd5b600060028204905060018216806127a057607f821691505b6020821081036127b3576127b2612759565b5b50919050565b60006060820190506127ce600083018661226f565b6127db6020830185612385565b6127e8604083018461226f565b949350505050565b600081905092915050565b600061280682612128565b61281081856127f0565b9350612820818560208601612144565b80840191505092915050565b600061283882846127fb565b915081905092915050565b60008190508160005260206000209050919050565b6000815461286581612788565b61286f81866127f0565b9450600182166000811461288a576001811461289f576128d2565b60ff19831686528115158202860193506128d2565b6128a885612843565b60005b838110156128ca578154818901526001820191506020810190506128ab565b838801955050505b50505092915050565b60006128e78284612858565b915081905092915050565b60006128fe82856127fb565b915061290a82846127fb565b91508190509392505050565b7f4e487b7100000000000000000000000000000000000000000000000000000000600052601160045260246000fd5b6000612950826121da565b915061295b836121da565b925082820190508082111561297357612972612916565b5b92915050565b60006020601f8301049050919050565b600082821b905092915050565b6000600883026129c67fffffffffffffffffffffffffffffffffffffffffffffffffffffffffffffffff82612989565b6129d08683612989565b95508019841693508086168417925050509392505050565b6000819050919050565b6000612a0d612a08612a03846121da565b6129e8565b6121da565b9050919050565b6000819050919050565b612a27836129f2565b612a3b612a3382612a14565b848454612996565b825550505050565b600090565b612a50612a43565b612a5b818484612a1e565b505050565b5b81811015612a7f57612a74600082612a48565b600181019050612a61565b5050565b601f821115612ac457612a9581612843565b612a9e84612979565b81016020851015612aad578190505b612ac1612ab985612979565b830182612a60565b50505b505050565b600082821c905092915050565b6000612ae760001984600802612ac9565b1980831691505092915050565b6000612b008383612ad6565b9150826002028217905092915050565b612b1982612128565b67ffffffffffffffff811115612b3257612b31612425565b5b612b3c8254612788565b612b47828285612a83565b600060209050601f831160018114612b7a5760008415612b68578287015190505b612b728582612af4565b865550612bda565b601f198416612b8886612843565b60005b82811015612bb057848901518255600182019150602085019450602081019050612b8b565b86831015612bcd5784890151612bc9601f891682612ad6565b8355505b6001600288020188555050505b505050505050565b600082825260208201905092915050565b6000612bfe82612128565b612c088185612be2565b9350612c18818560208601612144565b612c218161216e565b840191505092915050565b60006040830160008301518482036000860152612c498282612bf3565b91505060208301518482036020860152612c638282612bf3565b9150508091505092915050565b6000606082019050612c85600083018661226f565b612c926020830185612385565b8181036040830152612ca48184612c2c565b9050949350505050565b600081519050919050565b600082825260208201905092915050565b6000612cd582612cae565b612cdf8185612cb9565b9350612cef818560208601612144565b612cf88161216e565b840191505092915050565b6000608082019050612d18600083018761226f565b612d25602083018661226f565b612d326040830185612385565b8181036060830152612d448184612cca565b905095945050505050565b600081519050612d5e81612099565b92915050565b600060208284031215612d7a57612d79612063565b5b6000612d8884828501612d4f565b91505092915050565b7f7b00000000000000000000000000000000000000000000000000000000000000600082015250565b6000612dc76001836127f0565b9150612dd282612d91565b600182019050919050565b7f226e616d65223a20220000000000000000000000000000000000000000000000600082015250565b6000612e136009836127f0565b9150612e1e82612ddd565b600982019050919050565b7f2043657274696669636174652023000000000000000000000000000000000000600082015250565b6000612e5f600e836127f0565b9150612e6a82612e29565b600e82019050919050565b7f222c000000000000000000000000000000000000000000000000000000000000600082015250565b6000612eab6002836127f0565b9150612eb682612e75565b600282019050919050565b7f226465736372697074696f6e223a2022436572746966696361746520666f722060008201527f636f6d706c6574696e672074686520636f75727365222c000000000000000000602082015250565b6000612f1d6037836127f0565b9150612f2882612ec1565b603782019050919050565b7f2261747472696275746573223a205b0000000000000000000000000000000000600082015250565b6000612f69600f836127f0565b9150612f7482612f33565b600f82019050919050565b7f2274726169745f74797065223a2022436f75727365204e616d65222c00000000600082015250565b6000612fb5601c836127f0565b9150612fc082612f7f565b601c82019050919050565b7f2276616c7565223a202200000000000000000000000000000000000000000000600082015250565b6000613001600a836127f0565b915061300c82612fcb565b600a82019050919050565b7f2200000000000000000000000000000000000000000000000000000000000000600082015250565b600061304d6001836127f0565b915061305882613017565b600182019050919050565b7f7d2c000000000000000000000000000000000000000000000000000000000000600082015250565b60006130996002836127f0565b91506130a482613063565b600282019050919050565b7f2274726169745f74797065223a20224f434944222c0000000000000000000000600082015250565b60006130e56015836127f0565b91506130f0826130af565b601582019050919050565b7f7d00000000000000000000000000000000000000000000000000000000000000600082015250565b60006131316001836127f0565b915061313c826130fb565b600182019050919050565b7f5d00000000000000000000000000000000000000000000000000000000000000600082015250565b600061317d6001836127f0565b915061318882613147565b600182019050919050565b600061319e82612dba565b91506131a982612e06565b91506131b58287612858565b91506131c082612e52565b91506131cc82866127fb565b91506131d782612e9e565b91506131e282612f10565b91506131ed82612f5c565b91506131f882612dba565b915061320382612fa8565b915061320e82612ff4565b915061321a8285612858565b915061322582613040565b91506132308261308c565b915061323b82612dba565b9150613246826130d8565b915061325182612ff4565b915061325d82846127fb565b915061326882613040565b915061327382613124565b915061327e82613170565b915061328982613124565b915081905095945050505050565b7f646174613a6170706c69636174696f6e2f6a736f6e3b6261736536342c000000600082015250565b60006132cd601d836127f0565b91506132d882613297565b601d82019050919050565b60006132ee826132c0565b91506132fa82846127fb565b915081905092915050565b600060408201905061331a600083018561226f565b6133276020830184612385565b9392505050565b7f4e487b7100000000000000000000000000000000000000000000000000000000600052601260045260246000fd5b6000613368826121da565b9150613373836121da565b9250826133835761338261332e565b5b828204905092915050565b6000613399826121da565b91506133a4836121da565b92508282026133b2816121da565b915082820484148315176133c9576133c8612916565b5b509291505056fe4142434445464748494a4b4c4d4e4f505152535455565758595a6162636465666768696a6b6c6d6e6f707172737475767778797a303132333435363738392b2fa26469706673582212206cf2c92a40f6a34b081b7d822d02805357efb21462579fe08da7af347b9c91c364736f6c63430008180033",
  "linkReferences": {},
  "deployedLinkReferences": {}
}